{
	"contracts/5_Modifier.sol": {
		"Modifier1": {
			"abi": [
				{
					"inputs": [],
					"stateMutability": "nonpayable",
					"type": "constructor"
				},
				{
					"inputs": [
						{
							"internalType": "uint256",
							"name": "a",
							"type": "uint256"
						},
						{
							"internalType": "uint256",
							"name": "b",
							"type": "uint256"
						}
					],
					"name": "addFunction",
					"outputs": [],
					"stateMutability": "view",
					"type": "function"
				},
				{
					"inputs": [
						{
							"internalType": "uint256",
							"name": "a",
							"type": "uint256"
						},
						{
							"internalType": "uint256",
							"name": "b",
							"type": "uint256"
						}
					],
					"name": "mulFunction",
					"outputs": [],
					"stateMutability": "view",
					"type": "function"
				}
			],
			"devdoc": {
				"kind": "dev",
				"methods": {},
				"version": 1
			},
			"evm": {
				"assembly": "    /* \"contracts/5_Modifier.sol\":69:698  contract Modifier1{... */\n  mstore(0x40, 0x80)\n    /* \"contracts/5_Modifier.sol\":112:160  constructor(){... */\n  callvalue\n  dup1\n  iszero\n  tag_1\n  jumpi\n  0x00\n  dup1\n  revert\ntag_1:\n  pop\n    /* \"contracts/5_Modifier.sol\":143:153  msg.sender */\n  caller\n    /* \"contracts/5_Modifier.sol\":135:140  owner */\n  0x00\n  dup1\n    /* \"contracts/5_Modifier.sol\":135:153  owner = msg.sender */\n  0x0100\n  exp\n  dup2\n  sload\n  dup2\n  0xffffffffffffffffffffffffffffffffffffffff\n  mul\n  not\n  and\n  swap1\n  dup4\n  0xffffffffffffffffffffffffffffffffffffffff\n  and\n  mul\n  or\n  swap1\n  sstore\n  pop\n    /* \"contracts/5_Modifier.sol\":69:698  contract Modifier1{... */\n  dataSize(sub_0)\n  dup1\n  dataOffset(sub_0)\n  0x00\n  codecopy\n  0x00\n  return\nstop\n\nsub_0: assembly {\n        /* \"contracts/5_Modifier.sol\":69:698  contract Modifier1{... */\n      mstore(0x40, 0x80)\n      callvalue\n      dup1\n      iszero\n      tag_1\n      jumpi\n      0x00\n      dup1\n      revert\n    tag_1:\n      pop\n      jumpi(tag_2, lt(calldatasize, 0x04))\n      shr(0xe0, calldataload(0x00))\n      dup1\n      0xb5907928\n      eq\n      tag_3\n      jumpi\n      dup1\n      0xfb80ed0a\n      eq\n      tag_4\n      jumpi\n    tag_2:\n      0x00\n      dup1\n      revert\n        /* \"contracts/5_Modifier.sol\":165:269  function addFunction(uint a, uint b) public view CheckOwnerShip(a,b) {... */\n    tag_3:\n      tag_5\n      0x04\n      dup1\n      calldatasize\n      sub\n      dup2\n      add\n      swap1\n      tag_6\n      swap2\n      swap1\n      tag_7\n      jump\t// in\n    tag_6:\n      tag_8\n      jump\t// in\n    tag_5:\n      stop\n        /* \"contracts/5_Modifier.sol\":274:378  function mulFunction(uint a, uint b) public view CheckOwnerShip(a,b) {... */\n    tag_4:\n      tag_9\n      0x04\n      dup1\n      calldatasize\n      sub\n      dup2\n      add\n      swap1\n      tag_10\n      swap2\n      swap1\n      tag_7\n      jump\t// in\n    tag_10:\n      tag_11\n      jump\t// in\n    tag_9:\n      stop\n        /* \"contracts/5_Modifier.sol\":165:269  function addFunction(uint a, uint b) public view CheckOwnerShip(a,b) {... */\n    tag_8:\n        /* \"contracts/5_Modifier.sol\":229:230  a */\n      dup2\n        /* \"contracts/5_Modifier.sol\":231:232  b */\n      dup2\n        /* \"contracts/5_Modifier.sol\":449:454  owner */\n      0x00\n      dup1\n      sload\n      swap1\n      0x0100\n      exp\n      swap1\n      div\n      0xffffffffffffffffffffffffffffffffffffffff\n      and\n        /* \"contracts/5_Modifier.sol\":435:454  msg.sender == owner */\n      0xffffffffffffffffffffffffffffffffffffffff\n      and\n        /* \"contracts/5_Modifier.sol\":435:445  msg.sender */\n      caller\n        /* \"contracts/5_Modifier.sol\":435:454  msg.sender == owner */\n      0xffffffffffffffffffffffffffffffffffffffff\n      and\n      eq\n        /* \"contracts/5_Modifier.sol\":432:690  if(msg.sender == owner){... */\n      iszero\n      tag_13\n      jumpi\n        /* \"contracts/5_Modifier.sol\":474:475  0 */\n      0x00\n        /* \"contracts/5_Modifier.sol\":472:473  a */\n      dup3\n        /* \"contracts/5_Modifier.sol\":472:475  a>0 */\n      gt\n        /* \"contracts/5_Modifier.sol\":472:480  a>0&&b>0 */\n      dup1\n      iszero\n      tag_14\n      jumpi\n      pop\n        /* \"contracts/5_Modifier.sol\":479:480  0 */\n      0x00\n        /* \"contracts/5_Modifier.sol\":477:478  b */\n      dup2\n        /* \"contracts/5_Modifier.sol\":477:480  b>0 */\n      gt\n        /* \"contracts/5_Modifier.sol\":472:480  a>0&&b>0 */\n    tag_14:\n        /* \"contracts/5_Modifier.sol\":469:595  if(a>0&&b>0){... */\n      iszero\n      tag_15\n      jumpi\n      jump(tag_17)\n    tag_15:\n        /* \"contracts/5_Modifier.sol\":547:548  0 */\n      0x00\n        /* \"contracts/5_Modifier.sol\":545:546  a */\n      dup3\n        /* \"contracts/5_Modifier.sol\":545:548  a>0 */\n      gt\n        /* \"contracts/5_Modifier.sol\":545:553  a>0&&b>0 */\n      dup1\n      iszero\n      tag_18\n      jumpi\n      pop\n        /* \"contracts/5_Modifier.sol\":552:553  0 */\n      0x00\n        /* \"contracts/5_Modifier.sol\":550:551  b */\n      dup2\n        /* \"contracts/5_Modifier.sol\":550:553  b>0 */\n      gt\n        /* \"contracts/5_Modifier.sol\":545:553  a>0&&b>0 */\n    tag_18:\n        /* \"contracts/5_Modifier.sol\":537:580  require(a>0&&b>0, \"Variables Can Not Be 0\") */\n      tag_19\n      jumpi\n      mload(0x40)\n      0x08c379a000000000000000000000000000000000000000000000000000000000\n      dup2\n      mstore\n      0x04\n      add\n      tag_20\n      swap1\n      tag_21\n      jump\t// in\n    tag_20:\n      mload(0x40)\n      dup1\n      swap2\n      sub\n      swap1\n      revert\n    tag_19:\n        /* \"contracts/5_Modifier.sol\":469:595  if(a>0&&b>0){... */\n    tag_17:\n        /* \"contracts/5_Modifier.sol\":432:690  if(msg.sender == owner){... */\n      jump(tag_22)\n    tag_13:\n        /* \"contracts/5_Modifier.sol\":643:648  owner */\n      0x00\n      dup1\n      sload\n      swap1\n      0x0100\n      exp\n      swap1\n      div\n      0xffffffffffffffffffffffffffffffffffffffff\n      and\n        /* \"contracts/5_Modifier.sol\":631:648  msg.sender==owner */\n      0xffffffffffffffffffffffffffffffffffffffff\n      and\n        /* \"contracts/5_Modifier.sol\":631:641  msg.sender */\n      caller\n        /* \"contracts/5_Modifier.sol\":631:648  msg.sender==owner */\n      0xffffffffffffffffffffffffffffffffffffffff\n      and\n      eq\n        /* \"contracts/5_Modifier.sol\":623:679  require(msg.sender==owner, \"Only owners can call this \") */\n      tag_23\n      jumpi\n      mload(0x40)\n      0x08c379a000000000000000000000000000000000000000000000000000000000\n      dup2\n      mstore\n      0x04\n      add\n      tag_24\n      swap1\n      tag_25\n      jump\t// in\n    tag_24:\n      mload(0x40)\n      dup1\n      swap2\n      sub\n      swap1\n      revert\n    tag_23:\n        /* \"contracts/5_Modifier.sol\":432:690  if(msg.sender == owner){... */\n    tag_22:\n        /* \"contracts/5_Modifier.sol\":165:269  function addFunction(uint a, uint b) public view CheckOwnerShip(a,b) {... */\n      pop\n      pop\n      pop\n      pop\n      jump\t// out\n        /* \"contracts/5_Modifier.sol\":274:378  function mulFunction(uint a, uint b) public view CheckOwnerShip(a,b) {... */\n    tag_11:\n        /* \"contracts/5_Modifier.sol\":338:339  a */\n      dup2\n        /* \"contracts/5_Modifier.sol\":340:341  b */\n      dup2\n        /* \"contracts/5_Modifier.sol\":449:454  owner */\n      0x00\n      dup1\n      sload\n      swap1\n      0x0100\n      exp\n      swap1\n      div\n      0xffffffffffffffffffffffffffffffffffffffff\n      and\n        /* \"contracts/5_Modifier.sol\":435:454  msg.sender == owner */\n      0xffffffffffffffffffffffffffffffffffffffff\n      and\n        /* \"contracts/5_Modifier.sol\":435:445  msg.sender */\n      caller\n        /* \"contracts/5_Modifier.sol\":435:454  msg.sender == owner */\n      0xffffffffffffffffffffffffffffffffffffffff\n      and\n      eq\n        /* \"contracts/5_Modifier.sol\":432:690  if(msg.sender == owner){... */\n      iszero\n      tag_27\n      jumpi\n        /* \"contracts/5_Modifier.sol\":474:475  0 */\n      0x00\n        /* \"contracts/5_Modifier.sol\":472:473  a */\n      dup3\n        /* \"contracts/5_Modifier.sol\":472:475  a>0 */\n      gt\n        /* \"contracts/5_Modifier.sol\":472:480  a>0&&b>0 */\n      dup1\n      iszero\n      tag_28\n      jumpi\n      pop\n        /* \"contracts/5_Modifier.sol\":479:480  0 */\n      0x00\n        /* \"contracts/5_Modifier.sol\":477:478  b */\n      dup2\n        /* \"contracts/5_Modifier.sol\":477:480  b>0 */\n      gt\n        /* \"contracts/5_Modifier.sol\":472:480  a>0&&b>0 */\n    tag_28:\n        /* \"contracts/5_Modifier.sol\":469:595  if(a>0&&b>0){... */\n      iszero\n      tag_29\n      jumpi\n      jump(tag_31)\n    tag_29:\n        /* \"contracts/5_Modifier.sol\":547:548  0 */\n      0x00\n        /* \"contracts/5_Modifier.sol\":545:546  a */\n      dup3\n        /* \"contracts/5_Modifier.sol\":545:548  a>0 */\n      gt\n        /* \"contracts/5_Modifier.sol\":545:553  a>0&&b>0 */\n      dup1\n      iszero\n      tag_32\n      jumpi\n      pop\n        /* \"contracts/5_Modifier.sol\":552:553  0 */\n      0x00\n        /* \"contracts/5_Modifier.sol\":550:551  b */\n      dup2\n        /* \"contracts/5_Modifier.sol\":550:553  b>0 */\n      gt\n        /* \"contracts/5_Modifier.sol\":545:553  a>0&&b>0 */\n    tag_32:\n        /* \"contracts/5_Modifier.sol\":537:580  require(a>0&&b>0, \"Variables Can Not Be 0\") */\n      tag_33\n      jumpi\n      mload(0x40)\n      0x08c379a000000000000000000000000000000000000000000000000000000000\n      dup2\n      mstore\n      0x04\n      add\n      tag_34\n      swap1\n      tag_21\n      jump\t// in\n    tag_34:\n      mload(0x40)\n      dup1\n      swap2\n      sub\n      swap1\n      revert\n    tag_33:\n        /* \"contracts/5_Modifier.sol\":469:595  if(a>0&&b>0){... */\n    tag_31:\n        /* \"contracts/5_Modifier.sol\":432:690  if(msg.sender == owner){... */\n      jump(tag_35)\n    tag_27:\n        /* \"contracts/5_Modifier.sol\":643:648  owner */\n      0x00\n      dup1\n      sload\n      swap1\n      0x0100\n      exp\n      swap1\n      div\n      0xffffffffffffffffffffffffffffffffffffffff\n      and\n        /* \"contracts/5_Modifier.sol\":631:648  msg.sender==owner */\n      0xffffffffffffffffffffffffffffffffffffffff\n      and\n        /* \"contracts/5_Modifier.sol\":631:641  msg.sender */\n      caller\n        /* \"contracts/5_Modifier.sol\":631:648  msg.sender==owner */\n      0xffffffffffffffffffffffffffffffffffffffff\n      and\n      eq\n        /* \"contracts/5_Modifier.sol\":623:679  require(msg.sender==owner, \"Only owners can call this \") */\n      tag_36\n      jumpi\n      mload(0x40)\n      0x08c379a000000000000000000000000000000000000000000000000000000000\n      dup2\n      mstore\n      0x04\n      add\n      tag_37\n      swap1\n      tag_25\n      jump\t// in\n    tag_37:\n      mload(0x40)\n      dup1\n      swap2\n      sub\n      swap1\n      revert\n    tag_36:\n        /* \"contracts/5_Modifier.sol\":432:690  if(msg.sender == owner){... */\n    tag_35:\n        /* \"contracts/5_Modifier.sol\":274:378  function mulFunction(uint a, uint b) public view CheckOwnerShip(a,b) {... */\n      pop\n      pop\n      pop\n      pop\n      jump\t// out\n        /* \"#utility.yul\":7:146   */\n    tag_39:\n        /* \"#utility.yul\":53:58   */\n      0x00\n        /* \"#utility.yul\":91:97   */\n      dup2\n        /* \"#utility.yul\":78:98   */\n      calldataload\n        /* \"#utility.yul\":69:98   */\n      swap1\n      pop\n        /* \"#utility.yul\":107:140   */\n      tag_41\n        /* \"#utility.yul\":134:139   */\n      dup2\n        /* \"#utility.yul\":107:140   */\n      tag_42\n      jump\t// in\n    tag_41:\n        /* \"#utility.yul\":7:146   */\n      swap3\n      swap2\n      pop\n      pop\n      jump\t// out\n        /* \"#utility.yul\":152:626   */\n    tag_7:\n        /* \"#utility.yul\":220:226   */\n      0x00\n        /* \"#utility.yul\":228:234   */\n      dup1\n        /* \"#utility.yul\":277:279   */\n      0x40\n        /* \"#utility.yul\":265:274   */\n      dup4\n        /* \"#utility.yul\":256:263   */\n      dup6\n        /* \"#utility.yul\":252:275   */\n      sub\n        /* \"#utility.yul\":248:280   */\n      slt\n        /* \"#utility.yul\":245:364   */\n      iszero\n      tag_44\n      jumpi\n        /* \"#utility.yul\":283:362   */\n      tag_45\n      tag_46\n      jump\t// in\n    tag_45:\n        /* \"#utility.yul\":245:364   */\n    tag_44:\n        /* \"#utility.yul\":403:404   */\n      0x00\n        /* \"#utility.yul\":428:481   */\n      tag_47\n        /* \"#utility.yul\":473:480   */\n      dup6\n        /* \"#utility.yul\":464:470   */\n      dup3\n        /* \"#utility.yul\":453:462   */\n      dup7\n        /* \"#utility.yul\":449:471   */\n      add\n        /* \"#utility.yul\":428:481   */\n      tag_39\n      jump\t// in\n    tag_47:\n        /* \"#utility.yul\":418:481   */\n      swap3\n      pop\n        /* \"#utility.yul\":374:491   */\n      pop\n        /* \"#utility.yul\":530:532   */\n      0x20\n        /* \"#utility.yul\":556:609   */\n      tag_48\n        /* \"#utility.yul\":601:608   */\n      dup6\n        /* \"#utility.yul\":592:598   */\n      dup3\n        /* \"#utility.yul\":581:590   */\n      dup7\n        /* \"#utility.yul\":577:599   */\n      add\n        /* \"#utility.yul\":556:609   */\n      tag_39\n      jump\t// in\n    tag_48:\n        /* \"#utility.yul\":546:609   */\n      swap2\n      pop\n        /* \"#utility.yul\":501:619   */\n      pop\n        /* \"#utility.yul\":152:626   */\n      swap3\n      pop\n      swap3\n      swap1\n      pop\n      jump\t// out\n        /* \"#utility.yul\":632:998   */\n    tag_49:\n        /* \"#utility.yul\":774:777   */\n      0x00\n        /* \"#utility.yul\":795:862   */\n      tag_51\n        /* \"#utility.yul\":859:861   */\n      0x1a\n        /* \"#utility.yul\":854:857   */\n      dup4\n        /* \"#utility.yul\":795:862   */\n      tag_52\n      jump\t// in\n    tag_51:\n        /* \"#utility.yul\":788:862   */\n      swap2\n      pop\n        /* \"#utility.yul\":871:964   */\n      tag_53\n        /* \"#utility.yul\":960:963   */\n      dup3\n        /* \"#utility.yul\":871:964   */\n      tag_54\n      jump\t// in\n    tag_53:\n        /* \"#utility.yul\":989:991   */\n      0x20\n        /* \"#utility.yul\":984:987   */\n      dup3\n        /* \"#utility.yul\":980:992   */\n      add\n        /* \"#utility.yul\":973:992   */\n      swap1\n      pop\n        /* \"#utility.yul\":632:998   */\n      swap2\n      swap1\n      pop\n      jump\t// out\n        /* \"#utility.yul\":1004:1370   */\n    tag_55:\n        /* \"#utility.yul\":1146:1149   */\n      0x00\n        /* \"#utility.yul\":1167:1234   */\n      tag_57\n        /* \"#utility.yul\":1231:1233   */\n      0x16\n        /* \"#utility.yul\":1226:1229   */\n      dup4\n        /* \"#utility.yul\":1167:1234   */\n      tag_52\n      jump\t// in\n    tag_57:\n        /* \"#utility.yul\":1160:1234   */\n      swap2\n      pop\n        /* \"#utility.yul\":1243:1336   */\n      tag_58\n        /* \"#utility.yul\":1332:1335   */\n      dup3\n        /* \"#utility.yul\":1243:1336   */\n      tag_59\n      jump\t// in\n    tag_58:\n        /* \"#utility.yul\":1361:1363   */\n      0x20\n        /* \"#utility.yul\":1356:1359   */\n      dup3\n        /* \"#utility.yul\":1352:1364   */\n      add\n        /* \"#utility.yul\":1345:1364   */\n      swap1\n      pop\n        /* \"#utility.yul\":1004:1370   */\n      swap2\n      swap1\n      pop\n      jump\t// out\n        /* \"#utility.yul\":1376:1795   */\n    tag_25:\n        /* \"#utility.yul\":1542:1546   */\n      0x00\n        /* \"#utility.yul\":1580:1582   */\n      0x20\n        /* \"#utility.yul\":1569:1578   */\n      dup3\n        /* \"#utility.yul\":1565:1583   */\n      add\n        /* \"#utility.yul\":1557:1583   */\n      swap1\n      pop\n        /* \"#utility.yul\":1629:1638   */\n      dup2\n        /* \"#utility.yul\":1623:1627   */\n      dup2\n        /* \"#utility.yul\":1619:1639   */\n      sub\n        /* \"#utility.yul\":1615:1616   */\n      0x00\n        /* \"#utility.yul\":1604:1613   */\n      dup4\n        /* \"#utility.yul\":1600:1617   */\n      add\n        /* \"#utility.yul\":1593:1640   */\n      mstore\n        /* \"#utility.yul\":1657:1788   */\n      tag_61\n        /* \"#utility.yul\":1783:1787   */\n      dup2\n        /* \"#utility.yul\":1657:1788   */\n      tag_49\n      jump\t// in\n    tag_61:\n        /* \"#utility.yul\":1649:1788   */\n      swap1\n      pop\n        /* \"#utility.yul\":1376:1795   */\n      swap2\n      swap1\n      pop\n      jump\t// out\n        /* \"#utility.yul\":1801:2220   */\n    tag_21:\n        /* \"#utility.yul\":1967:1971   */\n      0x00\n        /* \"#utility.yul\":2005:2007   */\n      0x20\n        /* \"#utility.yul\":1994:2003   */\n      dup3\n        /* \"#utility.yul\":1990:2008   */\n      add\n        /* \"#utility.yul\":1982:2008   */\n      swap1\n      pop\n        /* \"#utility.yul\":2054:2063   */\n      dup2\n        /* \"#utility.yul\":2048:2052   */\n      dup2\n        /* \"#utility.yul\":2044:2064   */\n      sub\n        /* \"#utility.yul\":2040:2041   */\n      0x00\n        /* \"#utility.yul\":2029:2038   */\n      dup4\n        /* \"#utility.yul\":2025:2042   */\n      add\n        /* \"#utility.yul\":2018:2065   */\n      mstore\n        /* \"#utility.yul\":2082:2213   */\n      tag_63\n        /* \"#utility.yul\":2208:2212   */\n      dup2\n        /* \"#utility.yul\":2082:2213   */\n      tag_55\n      jump\t// in\n    tag_63:\n        /* \"#utility.yul\":2074:2213   */\n      swap1\n      pop\n        /* \"#utility.yul\":1801:2220   */\n      swap2\n      swap1\n      pop\n      jump\t// out\n        /* \"#utility.yul\":2307:2476   */\n    tag_52:\n        /* \"#utility.yul\":2391:2402   */\n      0x00\n        /* \"#utility.yul\":2425:2431   */\n      dup3\n        /* \"#utility.yul\":2420:2423   */\n      dup3\n        /* \"#utility.yul\":2413:2432   */\n      mstore\n        /* \"#utility.yul\":2465:2469   */\n      0x20\n        /* \"#utility.yul\":2460:2463   */\n      dup3\n        /* \"#utility.yul\":2456:2470   */\n      add\n        /* \"#utility.yul\":2441:2470   */\n      swap1\n      pop\n        /* \"#utility.yul\":2307:2476   */\n      swap3\n      swap2\n      pop\n      pop\n      jump\t// out\n        /* \"#utility.yul\":2482:2559   */\n    tag_67:\n        /* \"#utility.yul\":2519:2526   */\n      0x00\n        /* \"#utility.yul\":2548:2553   */\n      dup2\n        /* \"#utility.yul\":2537:2553   */\n      swap1\n      pop\n        /* \"#utility.yul\":2482:2559   */\n      swap2\n      swap1\n      pop\n      jump\t// out\n        /* \"#utility.yul\":2688:2805   */\n    tag_46:\n        /* \"#utility.yul\":2797:2798   */\n      0x00\n        /* \"#utility.yul\":2794:2795   */\n      dup1\n        /* \"#utility.yul\":2787:2799   */\n      revert\n        /* \"#utility.yul\":2811:2987   */\n    tag_54:\n        /* \"#utility.yul\":2951:2979   */\n      0x4f6e6c79206f776e6572732063616e2063616c6c207468697320000000000000\n        /* \"#utility.yul\":2947:2948   */\n      0x00\n        /* \"#utility.yul\":2939:2945   */\n      dup3\n        /* \"#utility.yul\":2935:2949   */\n      add\n        /* \"#utility.yul\":2928:2980   */\n      mstore\n        /* \"#utility.yul\":2811:2987   */\n      pop\n      jump\t// out\n        /* \"#utility.yul\":2993:3165   */\n    tag_59:\n        /* \"#utility.yul\":3133:3157   */\n      0x5661726961626c65732043616e204e6f74204265203000000000000000000000\n        /* \"#utility.yul\":3129:3130   */\n      0x00\n        /* \"#utility.yul\":3121:3127   */\n      dup3\n        /* \"#utility.yul\":3117:3131   */\n      add\n        /* \"#utility.yul\":3110:3158   */\n      mstore\n        /* \"#utility.yul\":2993:3165   */\n      pop\n      jump\t// out\n        /* \"#utility.yul\":3171:3293   */\n    tag_42:\n        /* \"#utility.yul\":3244:3268   */\n      tag_75\n        /* \"#utility.yul\":3262:3267   */\n      dup2\n        /* \"#utility.yul\":3244:3268   */\n      tag_67\n      jump\t// in\n    tag_75:\n        /* \"#utility.yul\":3237:3242   */\n      dup2\n        /* \"#utility.yul\":3234:3269   */\n      eq\n        /* \"#utility.yul\":3224:3287   */\n      tag_76\n      jumpi\n        /* \"#utility.yul\":3283:3284   */\n      0x00\n        /* \"#utility.yul\":3280:3281   */\n      dup1\n        /* \"#utility.yul\":3273:3285   */\n      revert\n        /* \"#utility.yul\":3224:3287   */\n    tag_76:\n        /* \"#utility.yul\":3171:3293   */\n      pop\n      jump\t// out\n\n    auxdata: 0xa264697066735822122011d3d71bfdcb61f5317a6508d753f612068b21c21b48daa8c29c76e0ee51f4ef64736f6c63430008070033\n}\n",
				"bytecode": {
					"linkReferences": {},
					"object": "608060405234801561001057600080fd5b50336000806101000a81548173ffffffffffffffffffffffffffffffffffffffff021916908373ffffffffffffffffffffffffffffffffffffffff1602179055506104c1806100606000396000f3fe608060405234801561001057600080fd5b50600436106100365760003560e01c8063b59079281461003b578063fb80ed0a14610057575b600080fd5b6100556004803603810190610050919061033c565b610073565b005b610071600480360381019061006c919061033c565b6101cd565b005b818160008054906101000a900473ffffffffffffffffffffffffffffffffffffffff1673ffffffffffffffffffffffffffffffffffffffff163373ffffffffffffffffffffffffffffffffffffffff161415610138576000821180156100d95750600081115b156100e357610133565b6000821180156100f35750600081115b610132576040517f08c379a0000000000000000000000000000000000000000000000000000000008152600401610129906103e2565b60405180910390fd5b5b6101c7565b60008054906101000a900473ffffffffffffffffffffffffffffffffffffffff1673ffffffffffffffffffffffffffffffffffffffff163373ffffffffffffffffffffffffffffffffffffffff16146101c6576040517f08c379a00000000000000000000000000000000000000000000000000000000081526004016101bd906103c2565b60405180910390fd5b5b50505050565b818160008054906101000a900473ffffffffffffffffffffffffffffffffffffffff1673ffffffffffffffffffffffffffffffffffffffff163373ffffffffffffffffffffffffffffffffffffffff161415610292576000821180156102335750600081115b1561023d5761028d565b60008211801561024d5750600081115b61028c576040517f08c379a0000000000000000000000000000000000000000000000000000000008152600401610283906103e2565b60405180910390fd5b5b610321565b60008054906101000a900473ffffffffffffffffffffffffffffffffffffffff1673ffffffffffffffffffffffffffffffffffffffff163373ffffffffffffffffffffffffffffffffffffffff1614610320576040517f08c379a0000000000000000000000000000000000000000000000000000000008152600401610317906103c2565b60405180910390fd5b5b50505050565b60008135905061033681610474565b92915050565b600080604083850312156103535761035261041d565b5b600061036185828601610327565b925050602061037285828601610327565b9150509250929050565b6000610389601a83610402565b915061039482610422565b602082019050919050565b60006103ac601683610402565b91506103b78261044b565b602082019050919050565b600060208201905081810360008301526103db8161037c565b9050919050565b600060208201905081810360008301526103fb8161039f565b9050919050565b600082825260208201905092915050565b6000819050919050565b600080fd5b7f4f6e6c79206f776e6572732063616e2063616c6c207468697320000000000000600082015250565b7f5661726961626c65732043616e204e6f74204265203000000000000000000000600082015250565b61047d81610413565b811461048857600080fd5b5056fea264697066735822122011d3d71bfdcb61f5317a6508d753f612068b21c21b48daa8c29c76e0ee51f4ef64736f6c63430008070033",
					"opcodes": "PUSH1 0x80 PUSH1 0x40 MSTORE CALLVALUE DUP1 ISZERO PUSH2 0x10 JUMPI PUSH1 0x0 DUP1 REVERT JUMPDEST POP CALLER PUSH1 0x0 DUP1 PUSH2 0x100 EXP DUP2 SLOAD DUP2 PUSH20 0xFFFFFFFFFFFFFFFFFFFFFFFFFFFFFFFFFFFFFFFF MUL NOT AND SWAP1 DUP4 PUSH20 0xFFFFFFFFFFFFFFFFFFFFFFFFFFFFFFFFFFFFFFFF AND MUL OR SWAP1 SSTORE POP PUSH2 0x4C1 DUP1 PUSH2 0x60 PUSH1 0x0 CODECOPY PUSH1 0x0 RETURN INVALID PUSH1 0x80 PUSH1 0x40 MSTORE CALLVALUE DUP1 ISZERO PUSH2 0x10 JUMPI PUSH1 0x0 DUP1 REVERT JUMPDEST POP PUSH1 0x4 CALLDATASIZE LT PUSH2 0x36 JUMPI PUSH1 0x0 CALLDATALOAD PUSH1 0xE0 SHR DUP1 PUSH4 0xB5907928 EQ PUSH2 0x3B JUMPI DUP1 PUSH4 0xFB80ED0A EQ PUSH2 0x57 JUMPI JUMPDEST PUSH1 0x0 DUP1 REVERT JUMPDEST PUSH2 0x55 PUSH1 0x4 DUP1 CALLDATASIZE SUB DUP2 ADD SWAP1 PUSH2 0x50 SWAP2 SWAP1 PUSH2 0x33C JUMP JUMPDEST PUSH2 0x73 JUMP JUMPDEST STOP JUMPDEST PUSH2 0x71 PUSH1 0x4 DUP1 CALLDATASIZE SUB DUP2 ADD SWAP1 PUSH2 0x6C SWAP2 SWAP1 PUSH2 0x33C JUMP JUMPDEST PUSH2 0x1CD JUMP JUMPDEST STOP JUMPDEST DUP2 DUP2 PUSH1 0x0 DUP1 SLOAD SWAP1 PUSH2 0x100 EXP SWAP1 DIV PUSH20 0xFFFFFFFFFFFFFFFFFFFFFFFFFFFFFFFFFFFFFFFF AND PUSH20 0xFFFFFFFFFFFFFFFFFFFFFFFFFFFFFFFFFFFFFFFF AND CALLER PUSH20 0xFFFFFFFFFFFFFFFFFFFFFFFFFFFFFFFFFFFFFFFF AND EQ ISZERO PUSH2 0x138 JUMPI PUSH1 0x0 DUP3 GT DUP1 ISZERO PUSH2 0xD9 JUMPI POP PUSH1 0x0 DUP2 GT JUMPDEST ISZERO PUSH2 0xE3 JUMPI PUSH2 0x133 JUMP JUMPDEST PUSH1 0x0 DUP3 GT DUP1 ISZERO PUSH2 0xF3 JUMPI POP PUSH1 0x0 DUP2 GT JUMPDEST PUSH2 0x132 JUMPI PUSH1 0x40 MLOAD PUSH32 0x8C379A000000000000000000000000000000000000000000000000000000000 DUP2 MSTORE PUSH1 0x4 ADD PUSH2 0x129 SWAP1 PUSH2 0x3E2 JUMP JUMPDEST PUSH1 0x40 MLOAD DUP1 SWAP2 SUB SWAP1 REVERT JUMPDEST JUMPDEST PUSH2 0x1C7 JUMP JUMPDEST PUSH1 0x0 DUP1 SLOAD SWAP1 PUSH2 0x100 EXP SWAP1 DIV PUSH20 0xFFFFFFFFFFFFFFFFFFFFFFFFFFFFFFFFFFFFFFFF AND PUSH20 0xFFFFFFFFFFFFFFFFFFFFFFFFFFFFFFFFFFFFFFFF AND CALLER PUSH20 0xFFFFFFFFFFFFFFFFFFFFFFFFFFFFFFFFFFFFFFFF AND EQ PUSH2 0x1C6 JUMPI PUSH1 0x40 MLOAD PUSH32 0x8C379A000000000000000000000000000000000000000000000000000000000 DUP2 MSTORE PUSH1 0x4 ADD PUSH2 0x1BD SWAP1 PUSH2 0x3C2 JUMP JUMPDEST PUSH1 0x40 MLOAD DUP1 SWAP2 SUB SWAP1 REVERT JUMPDEST JUMPDEST POP POP POP POP JUMP JUMPDEST DUP2 DUP2 PUSH1 0x0 DUP1 SLOAD SWAP1 PUSH2 0x100 EXP SWAP1 DIV PUSH20 0xFFFFFFFFFFFFFFFFFFFFFFFFFFFFFFFFFFFFFFFF AND PUSH20 0xFFFFFFFFFFFFFFFFFFFFFFFFFFFFFFFFFFFFFFFF AND CALLER PUSH20 0xFFFFFFFFFFFFFFFFFFFFFFFFFFFFFFFFFFFFFFFF AND EQ ISZERO PUSH2 0x292 JUMPI PUSH1 0x0 DUP3 GT DUP1 ISZERO PUSH2 0x233 JUMPI POP PUSH1 0x0 DUP2 GT JUMPDEST ISZERO PUSH2 0x23D JUMPI PUSH2 0x28D JUMP JUMPDEST PUSH1 0x0 DUP3 GT DUP1 ISZERO PUSH2 0x24D JUMPI POP PUSH1 0x0 DUP2 GT JUMPDEST PUSH2 0x28C JUMPI PUSH1 0x40 MLOAD PUSH32 0x8C379A000000000000000000000000000000000000000000000000000000000 DUP2 MSTORE PUSH1 0x4 ADD PUSH2 0x283 SWAP1 PUSH2 0x3E2 JUMP JUMPDEST PUSH1 0x40 MLOAD DUP1 SWAP2 SUB SWAP1 REVERT JUMPDEST JUMPDEST PUSH2 0x321 JUMP JUMPDEST PUSH1 0x0 DUP1 SLOAD SWAP1 PUSH2 0x100 EXP SWAP1 DIV PUSH20 0xFFFFFFFFFFFFFFFFFFFFFFFFFFFFFFFFFFFFFFFF AND PUSH20 0xFFFFFFFFFFFFFFFFFFFFFFFFFFFFFFFFFFFFFFFF AND CALLER PUSH20 0xFFFFFFFFFFFFFFFFFFFFFFFFFFFFFFFFFFFFFFFF AND EQ PUSH2 0x320 JUMPI PUSH1 0x40 MLOAD PUSH32 0x8C379A000000000000000000000000000000000000000000000000000000000 DUP2 MSTORE PUSH1 0x4 ADD PUSH2 0x317 SWAP1 PUSH2 0x3C2 JUMP JUMPDEST PUSH1 0x40 MLOAD DUP1 SWAP2 SUB SWAP1 REVERT JUMPDEST JUMPDEST POP POP POP POP JUMP JUMPDEST PUSH1 0x0 DUP2 CALLDATALOAD SWAP1 POP PUSH2 0x336 DUP2 PUSH2 0x474 JUMP JUMPDEST SWAP3 SWAP2 POP POP JUMP JUMPDEST PUSH1 0x0 DUP1 PUSH1 0x40 DUP4 DUP6 SUB SLT ISZERO PUSH2 0x353 JUMPI PUSH2 0x352 PUSH2 0x41D JUMP JUMPDEST JUMPDEST PUSH1 0x0 PUSH2 0x361 DUP6 DUP3 DUP7 ADD PUSH2 0x327 JUMP JUMPDEST SWAP3 POP POP PUSH1 0x20 PUSH2 0x372 DUP6 DUP3 DUP7 ADD PUSH2 0x327 JUMP JUMPDEST SWAP2 POP POP SWAP3 POP SWAP3 SWAP1 POP JUMP JUMPDEST PUSH1 0x0 PUSH2 0x389 PUSH1 0x1A DUP4 PUSH2 0x402 JUMP JUMPDEST SWAP2 POP PUSH2 0x394 DUP3 PUSH2 0x422 JUMP JUMPDEST PUSH1 0x20 DUP3 ADD SWAP1 POP SWAP2 SWAP1 POP JUMP JUMPDEST PUSH1 0x0 PUSH2 0x3AC PUSH1 0x16 DUP4 PUSH2 0x402 JUMP JUMPDEST SWAP2 POP PUSH2 0x3B7 DUP3 PUSH2 0x44B JUMP JUMPDEST PUSH1 0x20 DUP3 ADD SWAP1 POP SWAP2 SWAP1 POP JUMP JUMPDEST PUSH1 0x0 PUSH1 0x20 DUP3 ADD SWAP1 POP DUP2 DUP2 SUB PUSH1 0x0 DUP4 ADD MSTORE PUSH2 0x3DB DUP2 PUSH2 0x37C JUMP JUMPDEST SWAP1 POP SWAP2 SWAP1 POP JUMP JUMPDEST PUSH1 0x0 PUSH1 0x20 DUP3 ADD SWAP1 POP DUP2 DUP2 SUB PUSH1 0x0 DUP4 ADD MSTORE PUSH2 0x3FB DUP2 PUSH2 0x39F JUMP JUMPDEST SWAP1 POP SWAP2 SWAP1 POP JUMP JUMPDEST PUSH1 0x0 DUP3 DUP3 MSTORE PUSH1 0x20 DUP3 ADD SWAP1 POP SWAP3 SWAP2 POP POP JUMP JUMPDEST PUSH1 0x0 DUP2 SWAP1 POP SWAP2 SWAP1 POP JUMP JUMPDEST PUSH1 0x0 DUP1 REVERT JUMPDEST PUSH32 0x4F6E6C79206F776E6572732063616E2063616C6C207468697320000000000000 PUSH1 0x0 DUP3 ADD MSTORE POP JUMP JUMPDEST PUSH32 0x5661726961626C65732043616E204E6F74204265203000000000000000000000 PUSH1 0x0 DUP3 ADD MSTORE POP JUMP JUMPDEST PUSH2 0x47D DUP2 PUSH2 0x413 JUMP JUMPDEST DUP2 EQ PUSH2 0x488 JUMPI PUSH1 0x0 DUP1 REVERT JUMPDEST POP JUMP INVALID LOG2 PUSH5 0x6970667358 0x22 SLT KECCAK256 GT 0xD3 0xD7 SHL REVERT 0xCB PUSH2 0xF531 PUSH27 0x6508D753F612068B21C21B48DAA8C29C76E0EE51F4EF64736F6C63 NUMBER STOP ADDMOD SMOD STOP CALLER "
				},
				"gasEstimates": {
					"creation": {
						"codeDepositCost": "243400",
						"executionCost": "24553",
						"totalCost": "267953"
					},
					"external": {
						"addFunction(uint256,uint256)": "infinite",
						"mulFunction(uint256,uint256)": "infinite"
					}
				},
				"methodIdentifiers": {
					"addFunction(uint256,uint256)": "b5907928",
					"mulFunction(uint256,uint256)": "fb80ed0a"
				}
			},
			"storageLayout": {
				"storage": [
					{
						"astId": 3,
						"contract": "contracts/5_Modifier.sol:Modifier1",
						"label": "owner",
						"offset": 0,
						"slot": "0",
						"type": "t_address"
					}
				],
				"types": {
					"t_address": {
						"encoding": "inplace",
						"label": "address",
						"numberOfBytes": "20"
					}
				}
			},
			"userdoc": {
				"kind": "user",
				"methods": {},
				"version": 1
			}
		}
	}
}